:100000000EC028C06DC126C025C024C023C022C098
:1000100021C020C01FC01EC040C11CC01BC0112475
:100020001FBECFE5D2E0DEBFCDBF10E0A0E6B0E05E
:10003000E4ECFDE002C005900D92AA36B107D9F7B5
:1000400020E0AAE6B0E001C01D92A737B207E1F7B1
:1000500036D4B6C6D5CFCF92DF92EF92FF92CF9330
:10006000FFD380916A0090916B008230910509F472
:1000700096C028F4009769F00197A1F1FAC0843086
:10008000910509F4CDC008F4B3C0059709F4D6C0B2
:10009000F0C0CFD290936D0080936C0080916C0083
:1000A000CAE06C2F67D440E0682F80E0C8D380910D
:1000B0006C006C2F5FD440E0692F81E0C0D3809149
:1000C0006D006C2F57D440E0682F83E0B8D3809147
:1000D0006D006C2F4FD440E0692F84E0B0D3809145
:1000E000710084C0CAD26B017C0120E030E0A9011C
:1000F000B2D487FF1AC060E480E099D3F7FAF09495
:10010000F7F8F09420E030E040E251E4C701B60196
:10011000A6D40DD5862FCAE06C2F2CD440E0692FD1
:1001200081E08DD3C701B60121C020E030E040E27C
:1001300051E4C701B60193D4FAD4862FCAE06C2FDC
:1001400019D440E0692F80E07AD3C701B601EFD41B
:10015000862F6C2F0FD441E0692F81E070D320E00F
:1001600030E040E251E4C701B601BFD5E0D4862FAC
:100170006C2F00D440E0692F83E061D369E384E011
:1001800056D3809170008A3020F010926B0010924C
:100190006A00809170008F5F809370006AC08091C8
:1001A0007100882389F080916C00CAE06C2FE2D343
:1001B00040E0682F80E043D380916C006C2FDAD34D
:1001C00040E0692F81E03BD380916D00CAE06C2F45
:1001D000D1D340E0682F83E032D380916D006C2F43
:1001E000C9D340E0692F84E02AD381E017D341C00E
:1001F00080916C00CAE06C2FBDD340E0682F80E096
:100200001ED380916C006C2FB5D340E0692F81E044
:1002100016D380917100882341F380916D00D7CF70
:1002200080916F00E3D26CE780E001D360E581E06C
:10023000FED260E183E0FBD26DE319C080917100D2
:10024000882359F06EE580E0F2D269E781E0EFD2D1
:1002500067E783E0ECD26EE50AC06CE780E0E7D2A6
:1002600067E781E0E4D268E783E0E1D268E784E011
:10027000DED29091710081E0892780937100CF9147
:10028000FF90EF90DF90CF90F3C2A895E4CE86E484
:1002900081BD089585E481BD08951F920F920FB628
:1002A0000F9211242F933F934F935F936F937F93FC
:1002B0008F939F93AF93BF93EF93FF93CCDEFF9108
:1002C000EF91BF91AF919F918F917F916F915F91CE
:1002D0004F913F912F910F900FBE0F901F90189547
:1002E0001F920F920FB60F921124FF920F931F933C
:1002F0002F933F934F935F936F937F938F939F932E
:10030000AF93BF93CF93DF93EF93FF9385EA9EE084
:100310000197F1F700C0000080E28ABFB4996DC078
:1003200080916A0090916B008230910551F150F4F8
:10033000009781F0019709F055C010926B00109260
:100340006A0050C08430910599F110F1059709F4C5
:1003500041C048C088EE93E0B49908C0E9EFF0E0EE
:100360003197F1F700C000000197B1F7B49B32C09C
:1003700081E090E090936B0080936A00109270008F
:1003800031C083E090E090936B0080936A002AC0B4
:1003900080916C0090916D002DD184E090E090935D
:1003A0006B0080936A0080916F0080936E001AC08A
:1003B00010926B0010926A0086E481BD90916F00EC
:1003C00080916E00981771F060916F0080E090E06E
:1003D0006CD208C082E090E090936B0080936A003A
:1003E00085E481BD20916A0030916B0081E0232B70
:1003F00009F080E08093710048DFB39B05C0B1999C
:10040000A4C0D1E0C1E07FC0C1E0DBE31FE007E1B1
:10041000FF24F39480916A0090916B0083309105E2
:1004200091F084309105D9F0029709F08EC0809147
:100430006C00815080936C0080916C008831F0F0EA
:1004400000936C001BC080916D00815080936D0003
:1004500080916D008C3390F0D0936D000FC080912F
:100460006F00815080936F0080916F00882321F08E
:1004700080916F00803110F010936F00F092710046
:1004800004DFCC2319F028EE33E002C024E630E08C
:1004900080E090E0B3990AC0E9EFF0E03197F1F71E
:1004A00000C00000019682179307A1F7C0E0B39B3C
:1004B000B1CFA5CF84309105C9F1029709F045C0AD
:1004C00080916C008F5F80936C0080916C0088310C
:1004D00010F010926C00C0937100D7DEDD2391F113
:1004E00028EE33E080E090E0B1990AC0E9EFF0E057
:1004F0003197F1F700C00000019682179307A1F72A
:10050000D0E0B19922C080916A0090916B00833055
:10051000910581F680916D008F5F80936D008091D1
:100520006D008C33C0F210926D00D5CF80916F00BA
:100530008F5F80936F0080916F00803160F2C09375
:100540006F00C9CF24E630E0CDCFFF91EF91DF916E
:10055000CF91BF91AF919F918F917F916F915F915B
:100560004F913F912F911F910F91FF900F900FBED0
:100570000F901F9018951F93CF93DF931F92CDB7C5
:10058000DEB7182F698301D16981862FEFD0812FC3
:1005900003D11ED1898329D189810F90DF91CF9119
:1005A0001F910895CF93DF9300D0CDB7DEB74A8374
:1005B0006983EBD06981862FD9D04A81842FD6D028
:1005C000898313D189810F900F90DF91CF91089586
:1005D0006FE088E6D0DF482F4F776FE088E6E2CF04
:1005E00008956FE088E6C7DF982F991F9927991F14
:1005F000892F08951F93CF93DF93C82F192F88E673
:10060000C4D080E0B3D080E0B1D0DAE0812F6D2F8C
:10061000B1D166E0A6D1810FA9D08C2F6D2FAAD1C0
:1006200066E09FD18C0FA2D0E0D0DF91CF911F91D7
:10063000CFCFCF93DF9300D0CDB7DEB788E6A5D07C
:1006400080E094D088E6A8D0B6D0B5D0982F829517
:100650008F706AEF86D1980F9A83BAD0282F82952F
:100660008F706AEF7ED1820F8983BFD089819A8192
:100670000F900F90DF91CF910895CF92DF92EF927C
:10068000FF92CF93DF9388E680D081E16FD088E638
:1006900083D091D0D82F9CD0C82FA7D06D2F70E0D9
:1006A00080E090E070D26B017C018C2F8295869562
:1006B00086958370682F70E080E090E066D220E03D
:1006C00030E040E85EE311D39B01AC01C701B60105
:1006D0005ED1DF91CF91FF90EF90DF90CF900895A2
:1006E00088B3856088BB87B3856087BB8AE28DB994
:1006F0008FEF8FB98EB1806F8EB91EB808958EB10D
:10070000806F8EB900C0689AB29BFECF0000689AD5
:10071000769BF8CF00C008958EE08EB9F0CF1EB85A
:10072000EECFC29AB29BFECF00C0C0980000C29824
:10073000C09A8EB1881F8827881F0895C098C29AD2
:10074000B29BFECF0000C09A00C08EB185FB882707
:1007500080F908951FB8E0DF8FEF8FB90895CF9328
:10076000CFEFCFB9D9DFCFB9CF910895CF93C2984A
:100770008FB9D5DFCFEFCFB9B898CEDF8FB1CFB972
:10078000B89A80958170CF910895CF93C82FC9DF13
:100790008C2F880FCF91EACFCF93C82FC2DF8C2F39
:1007A000880F8160CF91E2CFB898B9DF8FB19FEF0A
:1007B0009FB9B89A0895CF93DF931F92CDB7DEB754
:1007C000F3DF8983C7DF89810F90DF91CF9108958F
:1007D000CF93DF931F92CDB7DEB7E6DF8983BFDF0C
:1007E00089810F90DF91CF910895A8CFCF93C82F23
:1007F00080E7CBDF8C2FC03108F08FE0806EB6DF52
:10080000CF91F3CF80E7C1DF81E2B0DFEEDF80E799
:10081000BCDF81E8ABDFE9DF8FE0E8CF882321F0A0
:100820008FEF8093740008951092740008958530BE
:1008300028F4E82FF0E0EE58FF4F608308958530EC
:1008400070F4E82FF0E0EE58FF4FA62FB0E0A05A6A
:10085000BF4F4795442747958C91482B4083089577
:10086000E2E7F0E01082118212821382148208956E
:100870001F93CF93DF9380E788DF80E077DFC2E7C5
:10088000D0E01C2F1B5F899171DF80E06FDF1C13AC
:10089000FACFDF91CF911F91A8CFE199FECF9FBBF7
:1008A0008EBB81E08CBB8DB30895E199FECF9FBBD9
:1008B0008EBB6DBB1CBA84E08CBBE19A089510DF3F
:1008C000A1DF8EDE80E090E0E8DF80936F00809112
:1008D0006F00803120F480916F00811103C08FE0A0
:1008E00080936F0080916F0081DF7BDE882339F079
:1008F00085E090E090936B0080936A0004C01092B2
:100900006B0010926A0081E080937100A4DB80E4A8
:1009100081BD86E481BD87B3857E87BB88B38A614C
:1009200088BB83EC99E00197F1F700C000008AE1F1
:1009300085BB80E28BBF379880E888B980B58D6031
:1009400080BD85B7877E806185BF85B7806285BFA2
:10095000F89485B7846885BF8B7F85BF7894889528
:10096000F7CF002480FD060E660F11F08695D1F7B3
:10097000802D0895991B79E004C0991F961708F0FF
:10098000961B881F7A95C9F7809508955058BB2704
:10099000AA270ED070C161D130F066D120F031F4B9
:1009A0009F3F11F41EF456C10EF4E095E7FB4CC1D5
:1009B000E92F72D180F3BA1762077307840795078E
:1009C00018F071F49EF58AC10EF4E0950B2EBA2F43
:1009D000A02D0B01B90190010C01CA01A001112445
:1009E000FF27591B99F0593F50F4503E68F11A16F1
:1009F000F040A22F232F342F4427585FF3CF469582
:100A000037952795A795F0405395C9F77EF41F16A3
:100A1000BA0B620B730B840BBAF09150A1F0FF0F6D
:100A2000BB1F661F771F881FC2F70EC0BA0F621F59
:100A3000731F841F48F4879577956795B795F79549
:100A40009E3F08F0B3CF9395880F08F09927EE0FDB
:100A5000979587950895D4D008F481E008950CD037
:100A60000AC102D140F0F9D030F021F45F3F19F013
:100A7000EBC0511134C1EEC00FD198F39923C9F3E3
:100A80005523B1F3951B550BBB27AA276217730794
:100A9000840738F09F5F5F4F220F331F441FAA1F48
:100AA000A9F333D00E2E3AF0E0E830D09150504008
:100AB000E695001CCAF729D0FE2F27D0660F771FB6
:100AC000881FBB1F261737074807AB07B0E809F098
:100AD000BB0B802DBF01FF2793585F4F2AF09E3F2D
:100AE000510568F0B1C0FBC05F3FECF3983EDCF30A
:100AF000869577956795B795F7959F5FC9F7880FA6
:100B0000911D9695879597F90895E1E0660F771FF7
:100B1000881FBB1F621773078407BA0720F0621B88
:100B2000730B840BBA0BEE1F88F7E0950895BCD0C9
:100B300088F09F5790F0B92F9927B751A0F0D1F0C6
:100B4000660F771F881F991F1AF0BA95C9F712C050
:100B5000B13081F0C3D0B1E00895C0C0672F782FC5
:100B60008827B85F39F0B93FCCF3869577956795BC
:100B7000B395D9F73EF490958095709561957F4F28
:100B80008F4F9F4F0895E89409C097FB3EF49095CE
:100B90008095709561957F4F8F4F9F4F9923A9F056
:100BA000F92F96E9BB279395F695879577956795E5
:100BB000B795F111F8CFFAF4BB0F11F460FF1BC029
:100BC0006F5F7F4F8F4F9F4F16C0882311F096E9BC
:100BD00011C0772321F09EE8872F762F05C066236A
:100BE00071F096E8862F70E060E02AF09A95660F23
:100BF000771F881FDAF7880F9695879597F90895DC
:100C0000990F0008550FAA0BE0E8FEEF161617061D
:100C1000E807F907C0F012161306E407F50798F085
:100C2000621B730B840B950B39F40A2661F0232B9E
:100C3000242B252B21F408950A2609F4A140A6951A
:100C40008FEF811D811D089597F99F6780E870E0FF
:100C500060E008959FEF80EC089500240A94161632
:100C6000170618060906089500240A94121613069A
:100C7000140605060895092E0394000C11F4882328
:100C800052F0BB0F40F4BF2B11F460FF04C06F5F44
:100C90007F4F8F4F9F4F089557FD9058440F551F1A
:100CA00059F05F3F71F04795880F97FB991F61F0EE
:100CB0009F3F79F087950895121613061406551F65
:100CC000F2CF4695F1DF08C0161617061806991FD1
:100CD000F1CF86957105610508940895E894BB27C6
:100CE00066277727CB0197F908950AD0C4CFB5DFDF
:100CF00028F0BADF18F0952309F0A6CFABCFEFCFDD
:100D0000CBDFA8F39923D9F35523C9F3950F50E00E
:100D1000551FAA27EE27FF27BB27002408946795B5
:100D200020F4E20FF31FB41F0A1E220F331F441FCB
:100D3000AA1F6695A9F7779530F4F30FB41F0A1E22
:100D4000121E08F46395330F441FAA1F221F7695C5
:100D500099F7879520F4B40F0A1E121E631F440FE3
:100D6000AA1F221F331F8695A9F7862F712D602D8C
:100D700011249F5750408AF0E1F088234AF0EE0F8B
:100D8000FF1FBB1F661F771F881F91505040A9F798
:100D90009E3F510570F058CFA2CF5F3FECF3983ED5
:100DA000DCF3869577956795B795F795E7959F5FFF
:100DB000C1F7FE2B880F911D9695879597F9089599
:040DC000F894FFCFD5
:0A0DC4003F065B4F666D7D077F6FF1
:00000001FF
